:020000003F2897
:100008007E1480312000911D0A280B283D2891116B
:100018002400941A1028112825281108F000F1014D
:100028007008F4007108F50021009D142400141DC7
:100038001E281F283D2821001C08240091001516A1
:100048003D28141D282829283228161B2C282D283D
:10005800322821001B082400910015161419352890
:1000680036283D281108F000F1017008F4007108E5
:10007800F5007E1009004028F401F5017E102000EB
:100088009828220097171708FC39013897001A306A
:10009800F200F830890B4E28F20B4E28003221006E
:1000A8001D0883390C389D001D141E088F396038CF
:1000B8009E009E1703309E040800783021009900A6
:1000C80098010C108C140C150C16103023008C00A1
:1000D80020008C0124001508F03906389500763088
:1000E8009200951620009111210091150B178B177E
:1000F800080020000C100B30F3002630F2005E30B0
:10010800890B8428F20B8428F30B842820000C1414
:100118000B30F3002630F2005E30890B9128F20B89
:100128009128F30B912808008031612080318031BB
:0E0138004520803180317D2080319E283F2877
:020000040001F9
:08000000FF3FFF3FFF3FFF3F00
:04000E00A40FFF1F1D
:00000001FF
