:020000003F2897
:100008007E1480312000911D0A280B283D2891116B
:100018002400941A1028112825281108F000F1014D
:100028007008F4007108F50021009D142400141DC7
:100038001E281F283D2821001C08240091001516A1
:100048003D28141D282829283228161B2C282D283D
:10005800322821001B082400910015161419352890
:1000680036283D281108F000F1017008F4007108E5
:10007800F5007E1009004028F401F5017E102000EB
:100088008A2878302100990098010C108C140C15DE
:100098000C16103023008C0020008C012400150859
:1000A800F0390638950076309200951620009111A7
:1000B800210091150B178B17080020000C100B302E
:1000C800F3002630F2005E30890B6828F20B6828AE
:1000D800F30B682820000C140B30F3002630F200D4
:1000E8005E30890B7528F20B7528F30B752808000C
:1000F80021001D0883390C389D001D141E088F39F6
:1001080060389E009E17FC309E050800803145200F
:10011800803180317C20803180316120803190288D
:020128003F286E
:020000040001F9
:08000000FF3FFF3FFF3FFF3F00
:04000E00A40FFF1F1D
:00000001FF
